{
  "contractName": "MyContract",
  "abi": [
    {
      "constant": true,
      "inputs": [
        {
          "name": "",
          "type": "uint256"
        }
      ],
      "name": "productsIds",
      "outputs": [
        {
          "name": "",
          "type": "uint256"
        }
      ],
      "payable": false,
      "stateMutability": "view",
      "type": "function"
    },
    {
      "constant": true,
      "inputs": [
        {
          "name": "",
          "type": "uint256"
        }
      ],
      "name": "stagesIds",
      "outputs": [
        {
          "name": "",
          "type": "uint256"
        }
      ],
      "payable": false,
      "stateMutability": "view",
      "type": "function"
    },
    {
      "anonymous": false,
      "inputs": [
        {
          "indexed": false,
          "name": "_addr",
          "type": "address"
        },
        {
          "indexed": false,
          "name": "newEmail",
          "type": "string"
        }
      ],
      "name": "userRegisted",
      "type": "event"
    },
    {
      "anonymous": false,
      "inputs": [
        {
          "indexed": false,
          "name": "id",
          "type": "uint256"
        }
      ],
      "name": "productRegistered",
      "type": "event"
    },
    {
      "anonymous": false,
      "inputs": [
        {
          "indexed": false,
          "name": "",
          "type": "uint256[]"
        }
      ],
      "name": "StageRegistered",
      "type": "event"
    },
    {
      "constant": false,
      "inputs": [
        {
          "name": "_addr",
          "type": "address"
        },
        {
          "name": "_email",
          "type": "string"
        }
      ],
      "name": "setUser",
      "outputs": [],
      "payable": false,
      "stateMutability": "nonpayable",
      "type": "function"
    },
    {
      "constant": true,
      "inputs": [
        {
          "name": "_addr",
          "type": "address"
        }
      ],
      "name": "getUser",
      "outputs": [
        {
          "name": "",
          "type": "string"
        }
      ],
      "payable": false,
      "stateMutability": "view",
      "type": "function"
    },
    {
      "constant": false,
      "inputs": [
        {
          "name": "_desc",
          "type": "string"
        },
        {
          "name": "_price",
          "type": "uint256"
        }
      ],
      "name": "addProduct",
      "outputs": [],
      "payable": false,
      "stateMutability": "nonpayable",
      "type": "function"
    },
    {
      "constant": true,
      "inputs": [
        {
          "name": "_id",
          "type": "uint256"
        }
      ],
      "name": "productInfo",
      "outputs": [
        {
          "name": "",
          "type": "uint256"
        },
        {
          "name": "",
          "type": "string"
        },
        {
          "name": "",
          "type": "address"
        },
        {
          "name": "",
          "type": "uint256"
        }
      ],
      "payable": false,
      "stateMutability": "view",
      "type": "function"
    },
    {
      "constant": true,
      "inputs": [],
      "name": "getProducts",
      "outputs": [
        {
          "name": "",
          "type": "uint256[]"
        },
        {
          "name": "",
          "type": "string[]"
        },
        {
          "name": "",
          "type": "address[]"
        },
        {
          "name": "",
          "type": "uint256[]"
        }
      ],
      "payable": false,
      "stateMutability": "view",
      "type": "function"
    },
    {
      "constant": false,
      "inputs": [
        {
          "name": "_productsIds",
          "type": "uint256[]"
        },
        {
          "name": "_stageDesc",
          "type": "string"
        }
      ],
      "name": "addToStage",
      "outputs": [],
      "payable": false,
      "stateMutability": "nonpayable",
      "type": "function"
    },
    {
      "constant": true,
      "inputs": [
        {
          "name": "_id",
          "type": "uint256"
        }
      ],
      "name": "stageInfo",
      "outputs": [
        {
          "name": "",
          "type": "uint256"
        },
        {
          "name": "",
          "type": "uint256[]"
        },
        {
          "name": "",
          "type": "string"
        },
        {
          "name": "",
          "type": "address"
        }
      ],
      "payable": false,
      "stateMutability": "view",
      "type": "function"
    },
    {
      "constant": true,
      "inputs": [],
      "name": "getStages",
      "outputs": [
        {
          "name": "",
          "type": "uint256[]"
        },
        {
          "name": "",
          "type": "uint256[][]"
        },
        {
          "name": "",
          "type": "string[]"
        },
        {
          "name": "",
          "type": "address[]"
        }
      ],
      "payable": false,
      "stateMutability": "view",
      "type": "function"
    }
  ],
  "bytecode": "0x60806040526000600555600060065534801561001a57600080fd5b50611ce68061002a6000396000f3fe6080604052600436106100a4576000357c0100000000000000000000000000000000000000000000000000000000900463ffffffff168063243af193146100a95780633f1a51b8146100e95780636f77926b14610112578063712611dd1461014f57806379655bd01461018c578063a2c0fb24146101ba578063b15247d9146101f7578063bb119f6e14610220578063c29b2f2014610260578063e63007fb1461028e575b600080fd5b3480156100b557600080fd5b506100d060048036036100cb9190810190611490565b6102b7565b6040516100e09493929190611a12565b60405180910390f35b3480156100f557600080fd5b50610110600480360361010b919081019061137c565b6104b2565b005b34801561011e57600080fd5b5061013960048036036101349190810190611353565b61054a565b6040516101469190611955565b60405180910390f35b34801561015b57600080fd5b5061017660048036036101719190810190611490565b610650565b60405161018391906119f7565b60405180910390f35b34801561019857600080fd5b506101a1610673565b6040516101b19493929190611893565b60405180910390f35b3480156101c657600080fd5b506101e160048036036101dc9190810190611490565b610889565b6040516101ee91906119f7565b60405180910390f35b34801561020357600080fd5b5061021e6004803603610219919081019061143c565b6108ac565b005b34801561022c57600080fd5b5061024760048036036102429190810190611490565b610a7e565b6040516102579493929190611a65565b60405180910390f35b34801561026c57600080fd5b50610275610c58565b60405161028594939291906118f4565b60405180910390f35b34801561029a57600080fd5b506102b560048036036102b091908101906113d0565b610e67565b005b600060608060006006548511151515610305576040517f08c379a00000000000000000000000000000000000000000000000000000000081526004016102fc906119b7565b60405180910390fd5b61030d61104c565b6002600087815260200190815260200160002060806040519081016040529081600082015481526020016001820180548060200260200160405190810160405280929190818152602001828054801561038557602002820191906000526020600020905b815481526020019060010190808311610371575b50505050508152602001600282018054600181600116156101000203166002900480601f0160208091040260200160405190810160405280929190818152602001828054600181600116156101000203166002900480156104275780601f106103fc57610100808354040283529160200191610427565b820191906000526020600020905b81548152906001019060200180831161040a57829003601f168201915b505050505081526020016003820160009054906101000a900473ffffffffffffffffffffffffffffffffffffffff1673ffffffffffffffffffffffffffffffffffffffff1673ffffffffffffffffffffffffffffffffffffffff1681525050905080600001518160200151826040015183606001518292508191509450945094509450509193509193565b6000600460008473ffffffffffffffffffffffffffffffffffffffff1673ffffffffffffffffffffffffffffffffffffffff16815260200190815260200160002090508181600001908051906020019061050d92919061108b565b507fac6ec2f3cde22b84535f0bb70aa5a3d4e365af8847b387e4598b86913b19bab58360405161053d9190611843565b60405180910390a1505050565b606061055461110b565b600460008473ffffffffffffffffffffffffffffffffffffffff1673ffffffffffffffffffffffffffffffffffffffff16815260200190815260200160002060206040519081016040529081600082018054600181600116156101000203166002900480601f0160208091040260200160405190810160405280929190818152602001828054600181600116156101000203166002900480156106385780601f1061060d57610100808354040283529160200191610638565b820191906000526020600020905b81548152906001019060200180831161061b57829003601f168201915b50505050508152505090508060000151915050919050565b60018181548110151561065f57fe5b906000526020600020016000915090505481565b606080606080606060018054806020026020016040519081016040528092919081815260200182805480156106c757602002820191906000526020600020905b8154815260200190600101908083116106b3575b50505050509050606081516040519080825280602002602001820160405280156107005781602001602082028038833980820191505090505b5090506060825160405190808252806020026020018201604052801561073a57816020015b60608152602001906001900390816107255790505b5090506060835160405190808252806020026020018201604052801561077457816020015b606081526020019060019003908161075f5790505b509050606084516040519080825280602002602001820160405280156107a95781602001602082028038833980820191505090505b50905060008090505b8551811015610871576107c4816102b7565b82925081915088858151811015156107d857fe5b90602001906020020188868151811015156107ef57fe5b906020019060200201888781518110151561080657fe5b906020019060200201888881518110151561081d57fe5b9060200190602002018473ffffffffffffffffffffffffffffffffffffffff1673ffffffffffffffffffffffffffffffffffffffff16815250849052849052848152505050505080806001019150506107b2565b50848383839850985098509850505050505090919293565b60038181548110151561089857fe5b906000526020600020016000915090505481565b60018251101515156108f3576040517f08c379a00000000000000000000000000000000000000000000000000000000081526004016108ea906119d7565b60405180910390fd5b600081111515610938576040517f08c379a000000000000000000000000000000000000000000000000000000000815260040161092f90611997565b60405180910390fd5b60806040519081016040528060055481526020018381526020018281526020013373ffffffffffffffffffffffffffffffffffffffff1681525060008060055481526020019081526020016000206000820151816000015560208201518160010190805190602001906109ac92919061111f565b506040820151816002015560608201518160030160006101000a81548173ffffffffffffffffffffffffffffffffffffffff021916908373ffffffffffffffffffffffffffffffffffffffff160217905550905050600160055490806001815401808255809150509060018203906000526020600020016000909192909190915055506005600081548092919060010191905055507fa0ecd9c452dc8233eea5ff75c2be4760d1cd2ff3edd236618fbe6403dc07c48a600554604051610a7291906119f7565b60405180910390a15050565b600060606000806005548511151515610acc576040517f08c379a0000000000000000000000000000000000000000000000000000000008152600401610ac390611977565b60405180910390fd5b610ad461119f565b6000808781526020019081526020016000206080604051908101604052908160008201548152602001600182018054600181600116156101000203166002900480601f016020809104026020016040519081016040528092919081815260200182805460018160011615610100020316600290048015610b955780601f10610b6a57610100808354040283529160200191610b95565b820191906000526020600020905b815481529060010190602001808311610b7857829003601f168201915b50505050508152602001600282015481526020016003820160009054906101000a900473ffffffffffffffffffffffffffffffffffffffff1673ffffffffffffffffffffffffffffffffffffffff1673ffffffffffffffffffffffffffffffffffffffff168152505090508060000151816020015160008089815260200190815260200160002060030160009054906101000a900473ffffffffffffffffffffffffffffffffffffffff1683604001518292509450945094509450509193509193565b60608060608060606001805480602002602001604051908101604052809291908181526020018280548015610cac57602002820191906000526020600020905b815481526020019060010190808311610c98575b5050505050905060608151604051908082528060200260200182016040528015610ce55781602001602082028038833980820191505090505b50905060608251604051908082528060200260200182016040528015610d1f57816020015b6060815260200190600190039081610d0a5790505b50905060608351604051908082528060200260200182016040528015610d545781602001602082028038833980820191505090505b50905060608451604051908082528060200260200182016040528015610d895781602001602082028038833980820191505090505b50905060008090505b8551811015610e4f57610da481610a7e565b8292508885815181101515610db557fe5b9060200190602002018886815181101515610dcc57fe5b9060200190602002018887815181101515610de357fe5b9060200190602002018888815181101515610dfa57fe5b906020019060200201848152508473ffffffffffffffffffffffffffffffffffffffff1673ffffffffffffffffffffffffffffffffffffffff1681525084905284815250505050508080600101915050610d92565b50838383839850985098509850505050505090919293565b6001815110151515610eae576040517f08c379a0000000000000000000000000000000000000000000000000000000008152600401610ea5906119d7565b60405180910390fd5b60008251111515610ef4576040517f08c379a0000000000000000000000000000000000000000000000000000000008152600401610eeb90611997565b60405180910390fd5b60806040519081016040528060065481526020018381526020018281526020013373ffffffffffffffffffffffffffffffffffffffff16815250600260006006548152602001908152602001600020600082015181600001556020820151816001019080519060200190610f699291906111de565b506040820151816002019080519060200190610f8692919061111f565b5060608201518160030160006101000a81548173ffffffffffffffffffffffffffffffffffffffff021916908373ffffffffffffffffffffffffffffffffffffffff160217905550905050600360065490806001815401808255809150509060018203906000526020600020016000909192909190915055506006600081548092919060010191905055507f4cc60a5ec8fb5bfb3ec397505a58e8cea4d91a7e74b9e01611588ad65c20bbe2826040516110409190611871565b60405180910390a15050565b608060405190810160405280600081526020016060815260200160608152602001600073ffffffffffffffffffffffffffffffffffffffff1681525090565b828054600181600116156101000203166002900490600052602060002090601f016020900481019282601f106110cc57805160ff19168380011785556110fa565b828001600101855582156110fa579182015b828111156110f95782518255916020019190600101906110de565b5b509050611107919061122b565b5090565b602060405190810160405280606081525090565b828054600181600116156101000203166002900490600052602060002090601f016020900481019282601f1061116057805160ff191683800117855561118e565b8280016001018555821561118e579182015b8281111561118d578251825591602001919060010190611172565b5b50905061119b919061122b565b5090565b608060405190810160405280600081526020016060815260200160008152602001600073ffffffffffffffffffffffffffffffffffffffff1681525090565b82805482825590600052602060002090810192821561121a579160200282015b828111156112195782518255916020019190600101906111fe565b5b509050611227919061122b565b5090565b61124d91905b80821115611249576000816000905550600101611231565b5090565b90565b600061125c8235611c3d565b905092915050565b600082601f830112151561127757600080fd5b813561128a61128582611ade565b611ab1565b915081818352602084019350602081019050838560208402820111156112af57600080fd5b60005b838110156112df57816112c5888261133f565b8452602084019350602083019250506001810190506112b2565b5050505092915050565b600082601f83011215156112fc57600080fd5b813561130f61130a82611b06565b611ab1565b9150808252602083016020830185838301111561132b57600080fd5b611336838284611c59565b50505092915050565b600061134b8235611c4f565b905092915050565b60006020828403121561136557600080fd5b600061137384828501611250565b91505092915050565b6000806040838503121561138f57600080fd5b600061139d85828601611250565b925050602083013567ffffffffffffffff8111156113ba57600080fd5b6113c6858286016112e9565b9150509250929050565b600080604083850312156113e357600080fd5b600083013567ffffffffffffffff8111156113fd57600080fd5b61140985828601611264565b925050602083013567ffffffffffffffff81111561142657600080fd5b611432858286016112e9565b9150509250929050565b6000806040838503121561144f57600080fd5b600083013567ffffffffffffffff81111561146957600080fd5b611475858286016112e9565b92505060206114868582860161133f565b9150509250929050565b6000602082840312156114a257600080fd5b60006114b08482850161133f565b91505092915050565b6114c281611c01565b82525050565b60006114d382611b73565b8084526020840193506114e583611b32565b60005b82811015611517576114fb8683516114b9565b61150482611bc0565b91506020860195506001810190506114e8565b50849250505092915050565b600061152e82611b7e565b8084526020840193508360208202850161154785611b3f565b60005b8481101561158057838303885261156283835161165a565b925061156d82611bcd565b915060208801975060018101905061154a565b508196508694505050505092915050565b600061159c82611b89565b808452602084019350836020820285016115b585611b4c565b60005b848110156115ee5783830388526115d08383516116eb565b92506115db82611bda565b91506020880197506001810190506115b8565b508196508694505050505092915050565b600061160a82611b9f565b80845260208401935061161c83611b66565b60005b8281101561164e57611632868351611834565b61163b82611bf4565b915060208601955060018101905061161f565b50849250505092915050565b600061166582611b94565b80845260208401935061167783611b59565b60005b828110156116a95761168d868351611834565b61169682611be7565b915060208601955060018101905061167a565b50849250505092915050565b60006116c082611bb5565b8084526116d4816020860160208601611c68565b6116dd81611c9b565b602085010191505092915050565b60006116f682611baa565b80845261170a816020860160208601611c68565b61171381611c9b565b602085010191505092915050565b6000601682527f50726f6475637420646f6573206e6f74206578697374000000000000000000006020830152604082019050919050565b6000601e82527f5072696365206d75737420626520686967686572207468616e207a65726f00006020830152604082019050919050565b6000601c82527f50726f6475637420737461676520646f6573206e6f74206578697374000000006020830152604082019050919050565b6000600c82527f4e616d6520696e76616c696400000000000000000000000000000000000000006020830152604082019050919050565b6000601182527f436f6e74612072656769737472616461210000000000000000000000000000006020830152604082019050919050565b61183d81611c33565b82525050565b600060408201905061185860008301846114b9565b8181036020830152611869816117fd565b905092915050565b6000602082019050818103600083015261188b81846115ff565b905092915050565b600060808201905081810360008301526118ad81876115ff565b905081810360208301526118c18186611523565b905081810360408301526118d58185611591565b905081810360608301526118e981846114c8565b905095945050505050565b6000608082019050818103600083015261190e81876115ff565b905081810360208301526119228186611591565b9050818103604083015261193681856114c8565b9050818103606083015261194a81846115ff565b905095945050505050565b6000602082019050818103600083015261196f81846116b5565b905092915050565b6000602082019050818103600083015261199081611721565b9050919050565b600060208201905081810360008301526119b081611758565b9050919050565b600060208201905081810360008301526119d08161178f565b9050919050565b600060208201905081810360008301526119f0816117c6565b9050919050565b6000602082019050611a0c6000830184611834565b92915050565b6000608082019050611a276000830187611834565b8181036020830152611a3981866115ff565b90508181036040830152611a4d81856116b5565b9050611a5c60608301846114b9565b95945050505050565b6000608082019050611a7a6000830187611834565b8181036020830152611a8c81866116b5565b9050611a9b60408301856114b9565b611aa86060830184611834565b95945050505050565b6000604051905081810181811067ffffffffffffffff82111715611ad457600080fd5b8060405250919050565b600067ffffffffffffffff821115611af557600080fd5b602082029050602081019050919050565b600067ffffffffffffffff821115611b1d57600080fd5b601f19601f8301169050602081019050919050565b6000602082019050919050565b6000602082019050919050565b6000602082019050919050565b6000602082019050919050565b6000602082019050919050565b600081519050919050565b600081519050919050565b600081519050919050565b600081519050919050565b600081519050919050565b600081519050919050565b600081519050919050565b6000602082019050919050565b6000602082019050919050565b6000602082019050919050565b6000602082019050919050565b6000602082019050919050565b6000611c0c82611c13565b9050919050565b600073ffffffffffffffffffffffffffffffffffffffff82169050919050565b6000819050919050565b6000611c4882611c13565b9050919050565b6000819050919050565b82818337600083830152505050565b60005b83811015611c86578082015181840152602081019050611c6b565b83811115611c95576000848401525b50505050565b6000601f19601f830116905091905056fea265627a7a723058202a399ba345b2a740d0cd7d0d6df35158fce7c40cff046fc2651de1a79e9a8be06c6578706572696d656e74616cf50037",
  "source": "pragma solidity ^0.5.0;\npragma experimental ABIEncoderV2;\n\ncontract MyContract {\n\n    // evento para notificar o cliente que a conta foi atualizada\n    event userRegisted(address _addr, string newEmail);\n    // evento para notificar o cliente que o produto foi registrado\n    event productRegistered(uint id);\n    // evento para notificar o cliente de que a Etapa foi registrada\n    event StageRegistered(uint[]);\n\n    // estrutura para manter dados do usurio\n    struct User {\n        string email;\n    }\n\n    // estrutura para registar o estagio de um produto\n    struct Stage {\n        uint id;\n        uint[] products;\n        string desc;\n        address owner;\n    }\n\n    // estrutura para manter dados do produto\n    struct Product {\n        uint id;\n        string desc;\n        uint price;\n        address owner;\n    }\n\n    // mapeia um id a um produto\n    mapping (uint => Product) products;\n    uint[] public productsIds;\n\n    // mapeia um id a uma etapa\n    mapping(uint => Stage) stages;\n    uint[] public stagesIds;\n\n    // mapeia endereo do usurio a sua estrutura\n    mapping (address => User) users;\n\n    // state variables\n    uint256 private lastId = 0;\n    uint256 private stagesId = 0;\n\n    // funo para cadastrar conta do usurio\n    function setUser(address _addr, string memory _email) public {\n        User storage user = users[_addr];\n        user.email = _email;\n\n        // notifica o cliente atravs do evento\n        emit userRegisted(_addr, \"Conta registrada!\");\n    }\n\n    // funo para resgatar dados do usurio\n    function getUser(address _addr) public view returns(string memory) {\n        User memory user = users[_addr];\n        return (user.email);\n    }\n\n    // funo para cadastrar um produto\n    function addProduct(string memory _desc, uint _price) public {\n        require(bytes(_desc).length >= 1, \"Name invalid\");\n        require(_price > 0, \"Price must be higher than zero\");\n\n        products[lastId] = Product(lastId, _desc, _price, msg.sender);\n        productsIds.push(lastId);\n        lastId++;\n        emit productRegistered(lastId);\n    }\n\n    // funo para resgatar info de um produto\n    function productInfo(uint _id) public view\n        returns(\n            uint,\n            string memory,\n            address,\n            uint\n        ) {\n            require(_id <= lastId, \"Product does not exist\");\n\n            Product memory product = products[_id];\n\n            return (\n                product.id,\n                product.desc,\n                products[_id].owner,\n                product.price\n            );\n    }\n\n    // funo que retorna todos os produtos de um usurio\n    function getProducts() public view returns(uint[] memory, string[] memory, address[] memory, uint[] memory) {\n\n        uint[] memory ids = productsIds;\n\n        uint[] memory idsProducts = new uint[](ids.length);\n        string[] memory names = new string[](ids.length);\n        address[] memory owners = new address[](ids.length);\n        uint[] memory prices = new uint[](ids.length);\n\n        for (uint i = 0; i < ids.length; i++) {\n            (idsProducts[i], names[i], owners[i], prices[i]) = productInfo(i);\n        }\n\n        return (idsProducts, names, owners, prices);\n    }\n\n    // funo para adicionar produtos  um estgio\n    function addToStage(uint[] memory _productsIds, string memory _stageDesc) public {\n        require(bytes(_stageDesc).length >= 1, \"Name invalid\");\n        require(_productsIds.length > 0, \"Price must be higher than zero\");\n\n        stages[stagesId] = Stage(stagesId, _productsIds, _stageDesc, msg.sender);\n        stagesIds.push(stagesId);\n        stagesId++;\n\n        emit StageRegistered(_productsIds);\n    }\n\n    // funo para resgatar info de um estgio\n    function stageInfo(uint _id) public view returns (uint, uint[] memory, string memory, address) {\n        require(_id <= stagesId, \"Product stage does not exist\");\n\n        Stage memory stage = stages[_id];\n        return (stage.id, stage.products, stage.desc, stage.owner);\n    }\n\n    // funo que retorna todos os produtos de um usurio\n    function getStages() public view returns (uint[] memory, uint[][] memory, string[] memory, address[] memory) {\n\n        uint[] memory ids = productsIds;\n        uint[] memory idsStages = new uint[](ids.length);\n        uint[][] memory prods = new uint[][](ids.length);\n        string[] memory prods_desc = new string[](ids.length);\n        address[] memory owners = new address[](ids.length);\n\n        for(uint i = 0; i < ids.length; i++) {\n            (idsStages[i], prods[i], prods_desc[i], owners[i]) = stageInfo(i);\n        }\n\n        return (ids, prods, prods_desc, owners);\n    }\n\n}",
  "sourcePath": "/Users/glopes/Documents/GitHub/iesb-blockchain/dapp/contracts/MyContract.sol",
  "compiler": {
    "name": "solc",
    "version": "0.5.0+commit.1d4f565a.Emscripten.clang"
  },
  "schemaVersion": "3.0.9",
  "updatedAt": "2019-06-27T23:57:06.100Z",
  "devdoc": {
    "methods": {}
  },
  "userdoc": {
    "methods": {}
  }
}