{
  "contractName": "ReuniaoContract",
  "abi": [
    {
      "constant": true,
      "inputs": [],
      "name": "ultimoIdAta",
      "outputs": [
        {
          "name": "",
          "type": "uint256"
        }
      ],
      "payable": false,
      "stateMutability": "view",
      "type": "function"
    },
    {
      "constant": true,
      "inputs": [
        {
          "name": "",
          "type": "uint256"
        }
      ],
      "name": "atasIds",
      "outputs": [
        {
          "name": "",
          "type": "uint256"
        }
      ],
      "payable": false,
      "stateMutability": "view",
      "type": "function"
    },
    {
      "constant": true,
      "inputs": [],
      "name": "ultimoIdComentario",
      "outputs": [
        {
          "name": "",
          "type": "uint256"
        }
      ],
      "payable": false,
      "stateMutability": "view",
      "type": "function"
    },
    {
      "constant": true,
      "inputs": [
        {
          "name": "",
          "type": "uint256"
        }
      ],
      "name": "comentariosIds",
      "outputs": [
        {
          "name": "",
          "type": "uint256"
        }
      ],
      "payable": false,
      "stateMutability": "view",
      "type": "function"
    },
    {
      "anonymous": false,
      "inputs": [
        {
          "indexed": false,
          "name": "id",
          "type": "uint256"
        }
      ],
      "name": "ataCadastradaSucesso",
      "type": "event"
    },
    {
      "anonymous": false,
      "inputs": [
        {
          "indexed": false,
          "name": "id",
          "type": "uint256"
        }
      ],
      "name": "comentarioCadastradoComSucesso",
      "type": "event"
    },
    {
      "constant": false,
      "inputs": [
        {
          "name": "titulo",
          "type": "string"
        },
        {
          "name": "resumo",
          "type": "string"
        },
        {
          "name": "datareuniao",
          "type": "string"
        }
      ],
      "name": "registrarAta",
      "outputs": [],
      "payable": false,
      "stateMutability": "nonpayable",
      "type": "function"
    },
    {
      "constant": false,
      "inputs": [
        {
          "name": "idata",
          "type": "uint256"
        },
        {
          "name": "comentario",
          "type": "string"
        }
      ],
      "name": "comentarAta",
      "outputs": [],
      "payable": false,
      "stateMutability": "nonpayable",
      "type": "function"
    },
    {
      "constant": true,
      "inputs": [],
      "name": "listarAtas",
      "outputs": [
        {
          "name": "",
          "type": "uint256[]"
        },
        {
          "name": "",
          "type": "string[]"
        },
        {
          "name": "",
          "type": "address[]"
        },
        {
          "name": "",
          "type": "string[]"
        },
        {
          "name": "",
          "type": "string[]"
        }
      ],
      "payable": false,
      "stateMutability": "view",
      "type": "function"
    },
    {
      "constant": true,
      "inputs": [
        {
          "name": "idata",
          "type": "uint256"
        }
      ],
      "name": "listarComentarios",
      "outputs": [
        {
          "name": "",
          "type": "string[]"
        }
      ],
      "payable": false,
      "stateMutability": "view",
      "type": "function"
    },
    {
      "constant": true,
      "inputs": [
        {
          "name": "_id",
          "type": "uint256"
        }
      ],
      "name": "recuperarInformacoesAta",
      "outputs": [
        {
          "name": "",
          "type": "uint256"
        },
        {
          "name": "",
          "type": "string"
        },
        {
          "name": "",
          "type": "address"
        },
        {
          "name": "",
          "type": "string"
        },
        {
          "name": "",
          "type": "string"
        }
      ],
      "payable": false,
      "stateMutability": "view",
      "type": "function"
    }
  ],
  "bytecode": "0x60806040526000600455600060055534801561001a57600080fd5b506118128061002a6000396000f3fe608060405260043610610099576000357c0100000000000000000000000000000000000000000000000000000000900463ffffffff1680630c23ddef1461009e57806319f9a547146100c957806343f082e4146100f85780635a3fd13a1461013557806370c525111461015e5780637d0d432114610189578063a473a46f146101b2578063cf242c33146101ef578063f79167ba1461022c575b600080fd5b3480156100aa57600080fd5b506100b361026d565b6040516100c091906115de565b60405180910390f35b3480156100d557600080fd5b506100de610273565b6040516100ef9594939291906114c8565b60405180910390f35b34801561010457600080fd5b5061011f600480360361011a9190810190611168565b610497565b60405161012c91906115de565b60405180910390f35b34801561014157600080fd5b5061015c600480360361015791908101906110d1565b6104ba565b005b34801561016a57600080fd5b5061017361070c565b60405161018091906115de565b60405180910390f35b34801561019557600080fd5b506101b060048036036101ab9190810190611191565b610712565b005b3480156101be57600080fd5b506101d960048036036101d49190810190611168565b6108a0565b6040516101e691906114a6565b60405180910390f35b3480156101fb57600080fd5b5061021660048036036102119190810190611168565b610c26565b60405161022391906115de565b60405180910390f35b34801561023857600080fd5b50610253600480360361024e9190810190611168565b610c49565b6040516102649594939291906115f9565b60405180910390f35b60045481565b6060806060806060600060018054905090506060816040519080825280602002602001820160405280156102b65781602001602082028038833980820191505090505b5090506060826040519080825280602002602001820160405280156102ef57816020015b60608152602001906001900390816102da5790505b5090506060836040519080825280602002602001820160405280156103235781602001602082028038833980820191505090505b50905060608460405190808252806020026020018201604052801561035c57816020015b60608152602001906001900390816103475790505b50905060608560405190808252806020026020018201604052801561039557816020015b60608152602001906001900390816103805790505b50905060008090505b8681101561047a576103af81610c49565b8393508191508090508a868151811015156103c657fe5b9060200190602002018a878151811015156103dd57fe5b9060200190602002018a888151811015156103f457fe5b9060200190602002018a8981518110151561040b57fe5b9060200190602002018a8a81518110151561042257fe5b9060200190602002018590528590528573ffffffffffffffffffffffffffffffffffffffff1673ffffffffffffffffffffffffffffffffffffffff16815250859052858152505050505050808060010191505061039e565b5084848484849a509a509a509a509a505050505050509091929394565b6001818154811015156104a657fe5b906000526020600020016000915090505481565b6001835110151515610501576040517f08c379a00000000000000000000000000000000000000000000000000000000081526004016104f89061155e565b60405180910390fd5b6001825110151515610548576040517f08c379a000000000000000000000000000000000000000000000000000000000815260040161053f9061157e565b60405180910390fd5b600181511015151561058f576040517f08c379a0000000000000000000000000000000000000000000000000000000008152600401610586906115be565b60405180910390fd5b60a06040519081016040528060045481526020018481526020018381526020013373ffffffffffffffffffffffffffffffffffffffff168152602001828152506000806004548152602001908152602001600020600082015181600001556020820151816001019080519060200190610609929190610f3d565b506040820151816002019080519060200190610626929190610f3d565b5060608201518160030160006101000a81548173ffffffffffffffffffffffffffffffffffffffff021916908373ffffffffffffffffffffffffffffffffffffffff160217905550608082015181600401908051906020019061068a929190610f3d565b50905050600160045490806001815401808255809150509060018203906000526020600020016000909192909190915055506004600081548092919060010191905055507fe9170101473869e62ff27b27212104bb8b0ce61d6046bd7a376e404ec3da2cee6004546040516106ff91906115de565b60405180910390a1505050565b60055481565b6001815110151515610759576040517f08c379a00000000000000000000000000000000000000000000000000000000081526004016107509061159e565b60405180910390fd5b60806040519081016040528060055481526020018381526020018281526020013373ffffffffffffffffffffffffffffffffffffffff16815250600260006005548152602001908152602001600020600082015181600001556020820151816001015560408201518160020190805190602001906107d8929190610f3d565b5060608201518160030160006101000a81548173ffffffffffffffffffffffffffffffffffffffff021916908373ffffffffffffffffffffffffffffffffffffffff160217905550905050600360055490806001815401808255809150509060018203906000526020600020016000909192909190915055506005600081548092919060010191905055507f507976d299715c27b24e639cf58d833138b327ae5d8a440c3e94fdee92da52bc60055460405161089491906115de565b60405180910390a15050565b6060600080905060008090505b600380549050811015610a315760006003828154811015156108cb57fe5b906000526020600020015490506108e0610fbd565b60026000838152602001908152602001600020608060405190810160405290816000820154815260200160018201548152602001600282018054600181600116156101000203166002900480601f0160208091040260200160405190810160405280929190818152602001828054600181600116156101000203166002900480156109ac5780601f10610981576101008083540402835291602001916109ac565b820191906000526020600020905b81548152906001019060200180831161098f57829003601f168201915b505050505081526020016003820160009054906101000a900473ffffffffffffffffffffffffffffffffffffffff1673ffffffffffffffffffffffffffffffffffffffff1673ffffffffffffffffffffffffffffffffffffffff168152505090508581602001511415610a225783806001019450505b505080806001019150506108ad565b50606081604051908082528060200260200182016040528015610a6857816020015b6060815260200190600190039081610a535790505b509050600080905060008090505b600380549050811015610c1a576000600382815481101515610a9457fe5b90600052602060002001549050610aa9610fbd565b60026000838152602001908152602001600020608060405190810160405290816000820154815260200160018201548152602001600282018054600181600116156101000203166002900480601f016020809104026020016040519081016040528092919081815260200182805460018160011615610100020316600290048015610b755780601f10610b4a57610100808354040283529160200191610b75565b820191906000526020600020905b815481529060010190602001808311610b5857829003601f168201915b505050505081526020016003820160009054906101000a900473ffffffffffffffffffffffffffffffffffffffff1673ffffffffffffffffffffffffffffffffffffffff1673ffffffffffffffffffffffffffffffffffffffff168152505090508781602001511415610c0b5780604001518585815181101515610bf557fe5b9060200190602002018190525083806001019450505b50508080600101915050610a76565b50819350505050919050565b600381815481101515610c3557fe5b906000526020600020016000915090505481565b6000606060006060806004548611151515610c99576040517f08c379a0000000000000000000000000000000000000000000000000000000008152600401610c909061153e565b60405180910390fd5b610ca1610ffc565b60008088815260200190815260200160002060a0604051908101604052908160008201548152602001600182018054600181600116156101000203166002900480601f016020809104026020016040519081016040528092919081815260200182805460018160011615610100020316600290048015610d625780601f10610d3757610100808354040283529160200191610d62565b820191906000526020600020905b815481529060010190602001808311610d4557829003601f168201915b50505050508152602001600282018054600181600116156101000203166002900480601f016020809104026020016040519081016040528092919081815260200182805460018160011615610100020316600290048015610e045780601f10610dd957610100808354040283529160200191610e04565b820191906000526020600020905b815481529060010190602001808311610de757829003601f168201915b505050505081526020016003820160009054906101000a900473ffffffffffffffffffffffffffffffffffffffff1673ffffffffffffffffffffffffffffffffffffffff1673ffffffffffffffffffffffffffffffffffffffff168152602001600482018054600181600116156101000203166002900480601f016020809104026020016040519081016040528092919081815260200182805460018160011615610100020316600290048015610efc5780601f10610ed157610100808354040283529160200191610efc565b820191906000526020600020905b815481529060010190602001808311610edf57829003601f168201915b505050505081525050905080600001518160200151826060015183604001518460800151839350819150809050955095509550955095505091939590929450565b828054600181600116156101000203166002900490600052602060002090601f016020900481019282601f10610f7e57805160ff1916838001178555610fac565b82800160010185558215610fac579182015b82811115610fab578251825591602001919060010190610f90565b5b509050610fb99190611042565b5090565b608060405190810160405280600081526020016000815260200160608152602001600073ffffffffffffffffffffffffffffffffffffffff1681525090565b60a060405190810160405280600081526020016060815260200160608152602001600073ffffffffffffffffffffffffffffffffffffffff168152602001606081525090565b61106491905b80821115611060576000816000905550600101611048565b5090565b90565b600082601f830112151561107a57600080fd5b813561108d6110888261168e565b611661565b915080825260208301602083018583830111156110a957600080fd5b6110b4838284611785565b50505092915050565b60006110c9823561177b565b905092915050565b6000806000606084860312156110e657600080fd5b600084013567ffffffffffffffff81111561110057600080fd5b61110c86828701611067565b935050602084013567ffffffffffffffff81111561112957600080fd5b61113586828701611067565b925050604084013567ffffffffffffffff81111561115257600080fd5b61115e86828701611067565b9150509250925092565b60006020828403121561117a57600080fd5b6000611188848285016110bd565b91505092915050565b600080604083850312156111a457600080fd5b60006111b2858286016110bd565b925050602083013567ffffffffffffffff8111156111cf57600080fd5b6111db85828601611067565b9150509250929050565b6111ee8161173f565b82525050565b60006111ff826116e1565b808452602084019350611211836116ba565b60005b82811015611243576112278683516111e5565b61123082611718565b9150602086019550600181019050611214565b50849250505092915050565b600061125a826116ec565b80845260208401935083602082028501611273856116c7565b60005b848110156112ac57838303885261128e83835161134e565b925061129982611725565b9150602088019750600181019050611276565b508196508694505050505092915050565b60006112c8826116f7565b8084526020840193506112da836116d4565b60005b8281101561130c576112f0868351611497565b6112f982611732565b91506020860195506001810190506112dd565b50849250505092915050565b60006113238261170d565b808452611337816020860160208601611794565b611340816117c7565b602085010191505092915050565b600061135982611702565b80845261136d816020860160208601611794565b611376816117c7565b602085010191505092915050565b6000600f82527f41746120696e6578697374656e746500000000000000000000000000000000006020830152604082019050919050565b6000601682527f546974756c6f2064652061746120696e76616c69646f000000000000000000006020830152604082019050919050565b6000601a82527f526573756d6f206465207265756e69616f20696e76616c69646f0000000000006020830152604082019050919050565b6000601382527f436f6d656e746172696f20696e76616c69646f000000000000000000000000006020830152604082019050919050565b6000601882527f44617461206465207265756e69616f20696e76616c69646100000000000000006020830152604082019050919050565b6114a081611771565b82525050565b600060208201905081810360008301526114c0818461124f565b905092915050565b600060a08201905081810360008301526114e281886112bd565b905081810360208301526114f6818761124f565b9050818103604083015261150a81866111f4565b9050818103606083015261151e818561124f565b90508181036080830152611532818461124f565b90509695505050505050565b6000602082019050818103600083015261155781611384565b9050919050565b60006020820190508181036000830152611577816113bb565b9050919050565b60006020820190508181036000830152611597816113f2565b9050919050565b600060208201905081810360008301526115b781611429565b9050919050565b600060208201905081810360008301526115d781611460565b9050919050565b60006020820190506115f36000830184611497565b92915050565b600060a08201905061160e6000830188611497565b81810360208301526116208187611318565b905061162f60408301866111e5565b81810360608301526116418185611318565b905081810360808301526116558184611318565b90509695505050505050565b6000604051905081810181811067ffffffffffffffff8211171561168457600080fd5b8060405250919050565b600067ffffffffffffffff8211156116a557600080fd5b601f19601f8301169050602081019050919050565b6000602082019050919050565b6000602082019050919050565b6000602082019050919050565b600081519050919050565b600081519050919050565b600081519050919050565b600081519050919050565b600081519050919050565b6000602082019050919050565b6000602082019050919050565b6000602082019050919050565b600061174a82611751565b9050919050565b600073ffffffffffffffffffffffffffffffffffffffff82169050919050565b6000819050919050565b6000819050919050565b82818337600083830152505050565b60005b838110156117b2578082015181840152602081019050611797565b838111156117c1576000848401525b50505050565b6000601f19601f830116905091905056fea265627a7a7230582077d1961cb510d60a579f48ee4396b9f8d2fd04702bd29672a02d95ba8311b1986c6578706572696d656e74616cf50037",
  "source": "pragma solidity ^0.5.0;\npragma experimental ABIEncoderV2;\n\ncontract ReuniaoContract {\n\n    // evento para notificar que ata foi cadastrada com sucesso\n    event ataCadastradaSucesso(uint id);\n\n    //evento para notificar que o comentario foi registrado com sucesso\n    event comentarioCadastradoComSucesso( uint id );\n\n    // estrutura para manter dados da ata de reuniao\n    struct Ata {\n        uint id;\n        string titulo;\n        string resumo ;\n        address owner;\n        string datareuniao;\n        \n    }\n\n    //estrutura para manter comentario de uma ata\n    struct Comentario \n    {\n        uint id ;\n        uint idata;\n        string descricao;\n        address owner;\n    }\n\n     // mapeia um id a uma ata\n    mapping (uint => Ata) atas;\n    uint[] public atasIds;\n    mapping (uint => Comentario) comentarios;\n    uint [] public comentariosIds;\n    uint public ultimoIdAta =0 ;\n    uint public ultimoIdComentario = 0;\n\n\n\n    // função para cadastrar ata de reuniao\n    function registrarAta(string memory titulo, string memory resumo , string memory datareuniao ) public {\n        require(bytes( titulo ).length >= 1, \"Titulo de ata invalido\");\n        require(bytes( resumo ).length >= 1, \"Resumo de reuniao invalido\");\n        require(bytes( datareuniao ).length >= 1, \"Data de reuniao invalida\");\n\n        atas[ultimoIdAta] = Ata(ultimoIdAta, titulo ,  resumo , msg.sender , datareuniao );\n        atasIds.push(ultimoIdAta);\n        ultimoIdAta++;\n        emit ataCadastradaSucesso(ultimoIdAta);\n    }\n\n     // função para comentar uma ata  de reuniao\n    function comentarAta( uint idata , string memory comentario  ) public {\n        require(bytes( comentario ).length >= 1, \"Comentario invalido\");\n        \n        comentarios[ultimoIdComentario] = Comentario(ultimoIdComentario, idata ,  comentario , msg.sender);\n        comentariosIds.push(ultimoIdComentario);\n        ultimoIdComentario++;\n        emit comentarioCadastradoComSucesso(ultimoIdComentario);\n    }\n\n     //funcao para listar todas atas de reuniao\n    function listarAtas() public view returns(uint[] memory, string[] memory, address[] memory, string[] memory , string []memory) {\n\n        uint qtde = atasIds.length ;\n\n        uint[] memory ids = new uint[]( qtde );\n        string[] memory titulos = new string[]( qtde );\n        address[] memory owners = new address[]( qtde );\n        string[] memory resumos = new string[]( qtde );\n        string[] memory datasreuniao = new string []( qtde );\n\n        for (uint i = 0; i < qtde; i++) {\n            (ids[i], titulos[i], owners[i], resumos[i] , datasreuniao[i]) = recuperarInformacoesAta(i);\n        }\n\n        return (ids, titulos, owners, resumos , datasreuniao);\n    }\n\n    function listarComentarios(  uint idata ) public view returns ( string [] memory   )\n    {\n        uint qtde = 0;\n\n       for( uint i =0 ; i < comentariosIds.length;  i++ )\n        {\n            uint id = comentariosIds[ i ];\n            Comentario memory comment = comentarios[ id ];\n            if( comment.idata == idata )\n                qtde++;\n        }\n\n       string[] memory result = new string[]( qtde );\n\n         uint j = 0;\n        for( uint i =0 ; i < comentariosIds.length;   i++ )\n        {\n            uint id = comentariosIds[ i ];\n            Comentario memory comment = comentarios[ id ];\n             if( comment.idata == idata )\n             {\n                  result[ j ]=comment.descricao;\n                  j++;\n             }\n        }\n\n\n       return result;\n    }\n\n    // função para resgatar info de uma ata\n    function recuperarInformacoesAta(uint _id) public view\n        returns(\n            uint,\n            string memory,\n            address,\n            string memory ,\n            string memory\n        ) {\n            require(_id <= ultimoIdAta, \"Ata inexistente\");\n\n            Ata memory ata = atas[_id];\n\n            return (\n                ata.id,\n                ata.titulo,\n                ata.owner,\n                ata.resumo , \n                ata.datareuniao\n            );\n    }\n\n\n\n\n}",
  "sourcePath": "/Users/glopes/Documents/GitHub/iesb-blockchain/dapp/contracts/ReuniaoContract.sol",
  "compiler": {
    "name": "solc",
    "version": "0.5.0+commit.1d4f565a.Emscripten.clang"
  },
  "schemaVersion": "3.0.9",
  "updatedAt": "2019-06-27T23:57:06.126Z",
  "devdoc": {
    "methods": {}
  },
  "userdoc": {
    "methods": {}
  }
}